{
  "contractName": "TourTicket",
  "abi": [
    {
      "inputs": [],
      "stateMutability": "nonpayable",
      "type": "constructor"
    },
    {
      "inputs": [],
      "name": "owner",
      "outputs": [
        {
          "internalType": "address payable",
          "name": "",
          "type": "address"
        }
      ],
      "stateMutability": "view",
      "type": "function"
    },
    {
      "inputs": [],
      "name": "ticketPrice",
      "outputs": [
        {
          "internalType": "uint256",
          "name": "",
          "type": "uint256"
        }
      ],
      "stateMutability": "view",
      "type": "function"
    },
    {
      "inputs": [],
      "name": "musicGroup",
      "outputs": [
        {
          "internalType": "string",
          "name": "",
          "type": "string"
        }
      ],
      "stateMutability": "pure",
      "type": "function"
    },
    {
      "inputs": [],
      "name": "showTime",
      "outputs": [
        {
          "internalType": "string",
          "name": "",
          "type": "string"
        }
      ],
      "stateMutability": "pure",
      "type": "function"
    },
    {
      "inputs": [],
      "name": "payment",
      "outputs": [],
      "stateMutability": "payable",
      "type": "function"
    }
  ],
  "bytecode": "0x608060405234801561001057600080fd5b5033600060016101000a81548173ffffffffffffffffffffffffffffffffffffffff021916908373ffffffffffffffffffffffffffffffffffffffff160217905550671bc16d674ec8000060018190555060008060006101000a81548160ff0219169083600181111561007f57fe5b0217905550610443806100936000396000f3fe60806040526004361061004a5760003560e01c80631209b1f61461004f5780631bc3d55b1461007a57806342f6487a1461010a5780638a6b607a146101145780638da5cb5b146101a4575b600080fd5b34801561005b57600080fd5b506100646101e5565b6040518082815260200191505060405180910390f35b34801561008657600080fd5b5061008f6101eb565b6040518080602001828103825283818151815260200191508051906020019080838360005b838110156100cf5780820151818401526020810190506100b4565b50505050905090810190601f1680156100fc5780820380516001836020036101000a031916815260200191505b509250505060405180910390f35b610112610228565b005b34801561012057600080fd5b506101296103aa565b6040518080602001828103825283818151815260200191508051906020019080838360005b8381101561016957808201518184015260208101905061014e565b50505050905090810190601f1680156101965780820380516001836020036101000a031916815260200191505b509250505060405180910390f35b3480156101b057600080fd5b506101b96103e7565b604051808273ffffffffffffffffffffffffffffffffffffffff16815260200191505060405180910390f35b60015481565b60606040518060400160405280602081526020017f546865204869766573204c697665202c204f6e65206e69676874206f6e6c7921815250905090565b6000600181111561023557fe5b60008054906101000a900460ff16600181111561024e57fe5b146102c1576040517f08c379a00000000000000000000000000000000000000000000000000000000081526004018080602001828103825260208152602001807f526567756c61722074696572207469636b657420707269636573206f6e6c792e81525060200191505060405180910390fd5b671bc16d674ec8000034101561033f576040517f08c379a00000000000000000000000000000000000000000000000000000000081526004018080602001828103825260208152602001807f546865207469636b6574206d757374206265207061696420696e2066756c6c2e81525060200191505060405180910390fd5b600060019054906101000a900473ffffffffffffffffffffffffffffffffffffffff1673ffffffffffffffffffffffffffffffffffffffff166108fc349081150290604051600060405180830381858888f193505050501580156103a7573d6000803e3d6000fd5b50565b60606040518060400160405280601781526020017f53686f772074696d65207374617274732061742035706d000000000000000000815250905090565b600060019054906101000a900473ffffffffffffffffffffffffffffffffffffffff168156fea2646970667358221220bd9cb71185ad921734857ed0a1d94179eb0be991c970d557fd2a77b7b38ae44164736f6c63430007030033",
  "immutableReferences": {},
  "source": "pragma solidity ^0.7.3;\r\n\r\ncontract TourTicket{\r\n    \r\n    enum level{regular, veryImportantPeople}\r\n     level purchaseLevel;\r\n    \r\n    address payable public owner;\r\n    uint public ticketPrice;\r\n    \r\n    constructor()public{\r\n        \r\n        owner= msg.sender;\r\n        ticketPrice= 2 ether;\r\n        \r\n        purchaseLevel= level.regular;\r\n    }\r\n    \r\n    modifier statusLevel{\r\n        require(purchaseLevel== level.regular,'Regular tier ticket prices only.');\r\n        _;\r\n    }\r\n    \r\n    function musicGroup()pure public returns(string memory){\r\n        return(\"The Hives Live , One night only!\");\r\n    }\r\n    \r\n    function showTime()pure public returns(string memory){\r\n        return(\"Show time starts at 5pm\");\r\n    }\r\n    \r\n    function payment()payable public statusLevel{\r\n        require(msg.value >= 2 ether,'The ticket must be paid in full.');\r\n        owner.transfer(msg.value);\r\n    }\r\n}",
  "sourcePath": "C:/Users/jeffrey/TourTicketsProject/contracts/TourTicket.sol",
  "compiler": {
    "name": "solc",
    "version": "0.7.3+commit.9bfce1f6.Emscripten.clang"
  },
  "schemaVersion": "3.3.3",
  "updatedAt": "2021-04-06T01:14:44.694Z",
  "devdoc": {
    "kind": "dev",
    "methods": {},
    "version": 1
  },
  "userdoc": {
    "kind": "user",
    "methods": {},
    "version": 1
  }
}