{
  "contractName": "VipTickets",
  "abi": [
    {
      "inputs": [],
      "stateMutability": "nonpayable",
      "type": "constructor"
    },
    {
      "inputs": [
        {
          "internalType": "uint256",
          "name": "",
          "type": "uint256"
        }
      ],
      "name": "merchandise",
      "outputs": [
        {
          "internalType": "string",
          "name": "",
          "type": "string"
        }
      ],
      "stateMutability": "view",
      "type": "function"
    },
    {
      "inputs": [],
      "name": "owner",
      "outputs": [
        {
          "internalType": "address payable",
          "name": "",
          "type": "address"
        }
      ],
      "stateMutability": "view",
      "type": "function"
    },
    {
      "inputs": [],
      "name": "ticketPrice",
      "outputs": [
        {
          "internalType": "uint256",
          "name": "",
          "type": "uint256"
        }
      ],
      "stateMutability": "view",
      "type": "function"
    },
    {
      "inputs": [],
      "name": "purchase",
      "outputs": [],
      "stateMutability": "payable",
      "type": "function"
    }
  ],
  "bytecode": "0x608060405260405180606001604052806040518060400160405280601281526020017f436f6c6c65637461626c6520542d53687274000000000000000000000000000081525081526020016040518060400160405280600d81526020017f2056696e796c205265636f72640000000000000000000000000000000000000081525081526020016040518060400160405280601981526020017f436f6c6c65637461626c65205369676e656420506f737465720000000000000081525081525060029060036100ce929190610154565b503480156100db57600080fd5b5033600060016101000a81548173ffffffffffffffffffffffffffffffffffffffff021916908373ffffffffffffffffffffffffffffffffffffffff160217905550673782dace9d90000060018190555060016000806101000a81548160ff0219169083600181111561014a57fe5b02179055506102bd565b8280548282559060005260206000209081019282156101a3579160200282015b828111156101a25782518290805190602001906101929291906101b4565b5091602001919060010190610174565b5b5090506101b09190610234565b5090565b828054600181600116156101000203166002900490600052602060002090601f016020900481019282601f106101f557805160ff1916838001178555610223565b82800160010185558215610223579182015b82811115610222578251825591602001919060010190610207565b5b5090506102309190610258565b5090565b5b80821115610254576000818161024b9190610275565b50600101610235565b5090565b5b80821115610271576000816000905550600101610259565b5090565b50805460018160011615610100020316600290046000825580601f1061029b57506102ba565b601f0160209004906000526020600020908101906102b99190610258565b5b50565b610372806102cc6000396000f3fe60806040526004361061003f5760003560e01c80631209b1f61461004457806364edfbf01461006f57806379210118146100795780638da5cb5b1461012d575b600080fd5b34801561005057600080fd5b5061005961016e565b6040518082815260200191505060405180910390f35b610077610174565b005b34801561008557600080fd5b506100b26004803603602081101561009c57600080fd5b810190808035906020019092919050505061025d565b6040518080602001828103825283818151815260200191508051906020019080838360005b838110156100f25780820151818401526020810190506100d7565b50505050905090810190601f16801561011f5780820380516001836020036101000a031916815260200191505b509250505060405180910390f35b34801561013957600080fd5b50610142610316565b604051808273ffffffffffffffffffffffffffffffffffffffff16815260200191505060405180910390f35b60015481565b673782dace9d9000003410156101f2576040517f08c379a000000000000000000000000000000000000000000000000000000000815260040180806020018281038252601f8152602001807f4d7573742070617920562e492e502e207469636b657420696e2066756c6c2e0081525060200191505060405180910390fd5b600060019054906101000a900473ffffffffffffffffffffffffffffffffffffffff1673ffffffffffffffffffffffffffffffffffffffff166108fc349081150290604051600060405180830381858888f1935050505015801561025a573d6000803e3d6000fd5b50565b6002818154811061026a57fe5b906000526020600020016000915090508054600181600116156101000203166002900480601f01602080910402602001604051908101604052809291908181526020018280546001816001161561010002031660029004801561030e5780601f106102e35761010080835404028352916020019161030e565b820191906000526020600020905b8154815290600101906020018083116102f157829003601f168201915b505050505081565b600060019054906101000a900473ffffffffffffffffffffffffffffffffffffffff168156fea264697066735822122092ef6d2133f38370e2316dbabe520b521384c0e27a2855c38d5f127594f154ba64736f6c63430007030033",
  "immutableReferences": {},
  "source": "pragma solidity ^0.7.3;\r\n\r\ncontract VipTickets{\r\n\r\n     enum level{regular, veryImportantPeople}\r\n     level purchaseLevel;\r\n\r\n    address payable public owner;\r\n    uint public ticketPrice;\r\n\r\n    string[]public merchandise=[\"Collectable T-Shrt\" ,\" Vinyl Record\", \"Collectable Signed Poster\"];\r\n\r\n    constructor()public{\r\n        owner= msg.sender;\r\n        \r\n        ticketPrice= 4 ether;\r\n        \r\n        purchaseLevel= level.veryImportantPeople;\r\n\r\n    }\r\n\r\n    function purchase() payable public {\r\n      require(msg.value >= 4 ether, \"Must pay V.I.P. ticket in full.\");\r\n      owner.transfer(msg.value);\r\n\r\n    }\r\n}",
  "sourcePath": "C:/Users/jeffrey/TourTicketsProject/contracts/VipTicket.sol",
  "compiler": {
    "name": "solc",
    "version": "0.7.3+commit.9bfce1f6.Emscripten.clang"
  },
  "schemaVersion": "3.3.3",
  "updatedAt": "2021-04-06T01:14:45.100Z",
  "devdoc": {
    "kind": "dev",
    "methods": {},
    "version": 1
  },
  "userdoc": {
    "kind": "user",
    "methods": {},
    "version": 1
  }
}